:100000000C9446000C9465000C9465000C946500FB
:100010000C9465000C9465000C9465000C946500CC
:100020000C9465000C9465000C9465000C946500BC
:100030000C9465000C94A3000C9465000C9465006E
:100040000C9465000C9465000C9465000C9465009C
:100050000C9465000C9465000C9465000C9465008C
:100060000C9465000C9465000C9465000C9465007C
:100070000C9465000C9465000C9465000C9465006C
:100080000C9465000C9465000C94650011241FBE4F
:10009000CFEFD0E4DEBFCDBF11E0A0E0B1E0E8E9F2
:1000A000F5E000E00BBF02C007900D92A231B1074E
:1000B000D9F721E0A2E1B1E001C01D92A932B20757
:1000C000E1F70E949E020C94CA020C940000CF93A8
:1000D000C82F8A3019F48DE00E9467008091C0001B
:1000E00085FFFCCFC093C60080E090E0CF910895DB
:1000F0008BE0809381008DE790E09093890080935E
:10010000880082E080936F00109285001092840036
:100110008091000190910101A0910201B091030131
:1001200080931C0190931D01A0931E01B0931F01A9
:100130008FB780688FBF089510928100089581E085
:100140008093200108951F920F920FB60F921124F1
:100150000BB60F922F933F934F935F936F937F93C1
:100160008F939F93AF93BF93EF93FF9380911C0165
:1001700090911D01A0911E01B0911F010197A1094D
:10018000B10980931C0190931D01A0931E01B093AF
:100190001F01892B8A2B8B2B91F40E949F00809149
:1001A000000190910101A0910201B091030180939F
:1001B0001C0190931D01A0931E01B0931F01FF919C
:1001C000EF91BF91AF919F918F917F916F915F91CF
:1001D0004F913F912F910F900BBE0F900FBE0F903C
:1001E0001F901895609300017093010180930201A4
:1001F0009093030160931C0170931D0180931E0175
:1002000090931F01089580912701909128018130DA
:10021000910579F038F08230910551F1039709F496
:1002200046C063C081E090E090932801809327014D
:100230005CC080911601909117018C3221E09207E9
:1002400060F421E030E030932801209327010196EB
:10025000909317018093160148C082E090E090933C
:1002600028018093270110921701109216013DC0BA
:1002700080911601909117018C3221E0920760F471
:1002800022E030E0309328012093270101969093DB
:1002900017018093160129C083E090E09093280114
:1002A0008093270110921701109216011EC08091B1
:1002B0001601909117018C3221E0920760F423E03F
:1002C00030E0309328012093270101969093170185
:1002D000809316010AC081E090E0909328018093FA
:1002E0002701109217011092160180912701909119
:1002F00028018230910549F08330910551F0019732
:1003000059F481E080931901089582E080931901E6
:10031000089584E0809319010895809125019091BA
:1003200026018130910559F018F0029739F144C047
:1003300081E090E090932601809325013DC080915B
:10034000140190911501883E23E0920760F421E0AA
:1003500030E03093260120932501019690931501FA
:100360008093140129C082E090E09093260180934D
:10037000250110921501109214011EC080911401E4
:1003800090911501883E23E0920760F422E030E06E
:1003900030932601209325010196909315018093B7
:1003A00014010AC081E090E090932601809325011A
:1003B000109215011092140180912501909126014F
:1003C0008130910519F0029729F0089588E0809313
:1003D0001A01089510921A010895809121019091B7
:1003E0002201892B31F481E090E0909322018093E7
:1003F00021018091210190912201019749F490916E
:10040000190180911A01892B90911801892B85B9C6
:10041000089580912301909124018130910599F0F4
:1004200038F082309105C1F1039709F45EC06CC0C9
:1004300083E090E0909324018093230110921301B4
:100440001092120161C080911201909113018230CB
:10045000910570F402990CC021E030E03093240142
:1004600020932301019690931301809312014CC0B5
:1004700002990BC082E090E09093240180932301C5
:1004800010921301109212013FC083E090E090930C
:1004900024018093230138C08091120190911301AF
:1004A0008230910570F402990CC022E030E0309364
:1004B000240120932301019690931301809312014C
:1004C00023C002990BC081E090E0909324018093B7
:1004D0002301109213011092120116C083E090E0E4
:1004E00090932401809323010FC0029907C081E0FB
:1004F00090E0909324018093230106C083E090E074
:1005000090932401809323018091230190912401F1
:100510008230910549F08330910549F0019769F4E3
:1005200080E18093180108951092180108951092A7
:100530001801109213011092120108958FEF84B9DF
:1005400015B811B882B910922801109227011092A3
:100550002601109225011092220110922101109281
:1005600024011092230161E070E080E090E00E949D
:10057000F2000E9478000E9403010E948D010E94F7
:10058000ED010E940902809120018823E1F310927D
:080590002001F1CFF894FFCF28
:1005980001000000000000020000000067000000E9
:0205A800000051
:00000001FF
